:020000040800F2
:1000000068060020450200084D0200084F02000863
:1000100051020008530200085502000800000000C9
:10002000000000000000000000000000570200086F
:1000300059020008000000005B0200085D02000891
:100040005F0200085F0200085F0200085F0200080C
:100050005F0200085F0200085F0200085F020008FC
:100060005F020008010300085F0200085F02000849
:100070005F0200085F0200085F0200085F020008DC
:100080005F0200085F0200085F0200080000000035
:100090000000000000000000000000005F020008F7
:1000A0005F0200085F0200085F0200085F020008AC
:1000B0005F0200085F0200085F0200085F0200089C
:1000C0005F0200085F0200085F0200085F0200088C
:1000D0005F0200085F0200085F02000800000000E5
:1000E0005F0200085F0200085F02000800000000D5
:1000F0000000000000000000000000005F02000897
:10010000000000005F0200085F0200085F020008B4
:1001100000000000000000000000000000000000DF
:100120005F0200085F0200085F0200085F0200082B
:100130005F02000800000000000000000000000056
:100140000000000000000000000000005F02000846
:100150005F0200085F0200085F0200085F020008FB
:100160005F0200085F0200080000000000000000BD
:10017000000000000000000000000000000000007F
:10018000000000005F020008000000000000000006
:100190005F02000800F002F800F044F814A696E8A8
:1001A000000CB244B344DA4501D100F03BF8BAE8A0
:1001B0000F000FA696E83000A5EB040504EB060738
:1001C000AAEB0704A7F101074FEA15154FEA34140B
:1001D000A4F10104AC4201D300F024F813F0010FA4
:1001E00018BFFB1A43F0010300F001F8DBE71847E2
:1001F000840F0000940F00007047000000230024CB
:1002000000250026103A28BF78C1FBD8520728BF26
:1002100030C148BF0B6070471FB500F09EFF1FBD87
:1002200010B510BD00F031F81146FFF7F5FF00F0F2
:1002300079F800F04FF803B4FFF7F2FF03BC00F0C9
:1002400057F800000948804709480047FEE7FEE7E5
:10025000FEE7FEE7FEE7FEE7FEE7FEE7FEE7FEE776
:1002600004480549054A064B704700001103000881
:100270009501000868000020680600206802002040
:1002800068020020704770477047754600F02CF8F0
:10029000AE4605006946534620F00700854618B073
:1002A00020B5FFF7DDFFBDE820404FF000064FF01E
:1002B00000074FF000084FF0000BAC46ACE8C00957
:1002C000ACE8C009ACE8C009ACE8C00921F00701FE
:1002D0008D46704710B50446AFF300802046BDE858
:1002E0001040FFF7A8BF0000004870470000002042
:1002F00001491820ABBEFEE726000200704700004F
:1003000040F26001C2F20001012008707047000055
:100310004EF68851CEF20001086840F47000086083
:100320007047000080B588B000210291079108460F
:1003300000F048FC029801220492114600F0FAFCF9
:10034000029A0499104600F0D5FD029A04991046CD
:1003500000F060FD029A03210391104600F0EAFCD0
:1003600002980399049A00F075FC0298039900F032
:1003700043F80398049900F089FB092000F0C8FBBA
:10038000FFE740F26000C2F20000007898B3FFE798
:10039000002001900122114600F016FE01980690FF
:1003A000FFE706984AF21F11C0F20701884205DCF8
:1003B000FFE7FFE7069801300690F2E701210022EF
:1003C0000092104600F000FE00980590FFE70598A7
:1003D0004AF21F11C0F20701884205DCFFE7FFE780
:1003E000059801300590F2E740F26001C2F2000189
:1003F00000200870FFE7C4E780B586B08DF81700CD
:100400008DF8161000208DF8150003200E2100F045
:10041000D9FB9DF81600002800F1C380FFE79DF886
:100420001600032800F3BD80FFE79DF81700014682
:100430000491052800F2B3800499DFE801F0031C61
:100440003A5876949DF816008200012101FA02F0D4
:10045000531C01FA03F31844931C01FA03F31844E4
:1004600003329140421843F60801C4F201010868C2
:100470009043086094E043F60801C4F20101086863
:100480009DF816204FEA820C012303FA0CF2104368
:100490000CF1010203FA02F20CF1020E03FA0EFE55
:1004A00072440CF1030C03FA0CF31A4490430860F5
:1004B00076E043F60801C4F2010108689DF81620B1
:1004C0004FEA820C0CF10102012303FA02F21043FD
:1004D00003FA0CF20CF1020E03FA0EFE72440CF158
:1004E000030C03FA0CF31A449043086058E043F6F7
:1004F0000801C4F2010108689DF816204FEA820C39
:100500000CF10102012303FA02F203FA0CFE724419
:1005100010430CF1020203FA02F20CF1030C03FA8D
:100520000CF31A44904308603AE043F60801C4F221
:10053000010108689DF816204FEA820C0CF10202B6
:10054000012303FA02F2104303FA0CF20CF1010E3C
:1005500003FA0EFE72440CF1030C03FA0CF31A4476
:10056000904308601CE043F60801C4F201010868EA
:100570009DF81620930003F1010C012202FA0CFCF5
:1005800002FA03FEF44403F1020E02FA0EFEF444F2
:1005900040EA0C0003339A409043086000E0FFE714
:1005A000FFE79DF816000428C0F2C880FFE79DF819
:1005B0001600072800F3C280FFE79DF816000438F4
:1005C0008DF815009DF8170001460391052800F2EB
:1005D000B3800399DFE801F0031C3A5876949DF844
:1005E00015008200012101FA02F0531C01FA03F305
:1005F0001844931C01FA03F3184403329140421843
:1006000043F60C01C4F2010108689043086094E0CD
:1006100043F60C01C4F2010108689DF815204FEA69
:10062000820C012303FA0CF210430CF1010203FACD
:1006300002F20CF1020E03FA0EFE72440CF1030CEE
:1006400003FA0CF31A449043086076E043F60C0179
:10065000C4F2010108689DF815204FEA820C0CF1E4
:100660000102012303FA02F2104303FA0CF20CF127
:10067000020E03FA0EFE72440CF1030C03FA0CF3A3
:100680001A449043086058E043F60C01C4F201019B
:1006900008689DF815204FEA820C0CF10102012335
:1006A00003FA02F203FA0CFE724410430CF1020248
:1006B00003FA02F20CF1030C03FA0CF31A44904310
:1006C00008603AE043F60C01C4F2010108689DF8A5
:1006D00015204FEA820C0CF10202012303FA02F208
:1006E000104303FA0CF20CF1010E03FA0EFE7244F1
:1006F0000CF1030C03FA0CF31A44904308601CE05D
:1007000043F60C01C4F2010108689DF8152093001E
:1007100003F1010C012202FA0CFC02FA03FEF4447C
:1007200003F1020E02FA0EFEF44440EA0C00033319
:100730009A409043086000E0FFE7FFE79DF816004D
:100740000828C0F2C880FFE79DF816000B2800F3C8
:10075000C280FFE79DF8160008388DF815009DF857
:10076000170001460291052800F2B3800299DFE8E4
:1007700001F0031C3A5876949DF81500820001217F
:1007800001FA02F0531C01FA03F31844931C01FA16
:1007900003F3184403329140421843F61001C4F2A7
:1007A000010108689043086094E043F61001C4F228
:1007B000010108689DF815204FEA820C012303FA15
:1007C0000CF210430CF1010203FA02F20CF1020EDA
:1007D00003FA0EFE72440CF1030C03FA0CF31A44F4
:1007E0009043086076E043F61001C4F20101086806
:1007F0009DF815204FEA820C0CF10102012303FA47
:1008000002F2104303FA0CF20CF1020E03FA0EFE90
:1008100072440CF1030C03FA0CF31A449043086081
:1008200058E043F61001C4F2010108689DF8152054
:100830004FEA820C0CF10102012303FA02F203FADF
:100840000CFE724410430CF1020203FA02F20CF1A6
:10085000030C03FA0CF31A44904308603AE043F6A1
:100860001001C4F2010108689DF815204FEA820CBE
:100870000CF10202012303FA02F2104303FA0CF214
:100880000CF1010E03FA0EFE72440CF1030C03FA94
:100890000CF31A44904308601CE043F61001C4F2C4
:1008A000010108689DF81520930003F1010C012255
:1008B00002FA0CFC02FA03FEF44403F1020E02FAFF
:1008C0000EFEF44440EA0C0003339A409043086063
:1008D00000E0FFE7FFE79DF816000C28C0F2C88093
:1008E000FFE79DF816000F2800F3C280FFE79DF890
:1008F00016000C388DF815009DF81700014601917F
:10090000052800F2B3800199DFE801F0031C3A5892
:1009100076949DF815008200012101FA02F0531C23
:1009200001FA03F31844931C01FA03F31844033249
:100930009140421843F61401C4F201010868904343
:10094000086094E043F61401C4F2010108689DF8C0
:1009500015204FEA820C012303FA0CF210430CF12C
:10096000010203FA02F20CF1020E03FA0EFE7244C7
:100970000CF1030C03FA0CF31A449043086076E080
:1009800043F61401C4F2010108689DF815204FEAEE
:10099000820C0CF10102012303FA02F2104303FA64
:1009A0000CF20CF1020E03FA0EFE72440CF1030C71
:1009B00003FA0CF31A449043086058E043F614011C
:1009C000C4F2010108689DF815204FEA820C0CF171
:1009D0000102012303FA02F203FA0CFE72441043EF
:1009E0000CF1020203FA02F20CF1030C03FA0CF30D
:1009F0001A44904308603AE043F61401C4F201013E
:100A000008689DF815204FEA820C0CF102020123C0
:100A100003FA02F2104303FA0CF20CF1010E03FA8E
:100A20000EFE72440CF1030C03FA0CF31A449043CB
:100A300008601CE043F61401C4F2010108689DF847
:100A40001520930003F1010C012202FA0CFC02FABA
:100A500003FEF44403F1020E02FA0EFEF44440EAEF
:100A60000C0003339A409043086000E0FFE7FFE783
:100A70009DF81610012000FA01F243F60041C4F27D
:100A8000010108681043086006B080BD82B08DF88F
:100A900007008DF806109DF806000146009120B170
:100AA000FFE70098012818D02FE09DF807100120DB
:100AB00000FA01F343F60C42C4F201021168194333
:100AC00011609DF8071000FA01F243F60841C4F2E4
:100AD000010108689043086018E09DF807100120A4
:100AE00000FA01F343F60842C4F201021168194307
:100AF00011609DF8071000FA01F243F60C41C4F2B0
:100B0000010108689043086000E0FFE702B0704709
:100B100081B0ADF802000020ADF80000BDF8020081
:100B2000002812D4FFE7BDF802001F280DDCFFE704
:100B3000BDF80210012000FA01F24EF20011CEF2CF
:100B4000000108681043086039E0BDF80200202861
:100B500017DBFFE7BDF802003E2812DCFFE7BDF817
:100B600000002038ADF80000BDF80010012000FAA8
:100B700001F24EF20411CEF2000108681043086041
:100B80001CE0BDF80200402817DBFFE7BDF80200BB
:100B90005E2812DCFFE7BDF800004038ADF8000029
:100BA000BDF80010012000FA01F24EF20811CEF259
:100BB0000001086810430860FFE7FFE7FFE701B0A6
:100BC0007047000082B08DF80700ADF804109DF862
:100BD000070001460091032838D80099DFE801F0AA
:100BE000020F1C29BDF80410012000FA01F243F69F
:100BF0003001C4F2020108681043086027E0BDF824
:100C00000410012000FA01F243F63401C4F202019B
:100C10000868104308601AE0BDF80410012000FACB
:100C200001F243F64001C4F2020108681043086073
:100C30000DE0BDF80410012000FA01F243F6440172
:100C4000C4F2020108681043086000E0FFE702B048
:100C50007047000082B08DF807008DF806108DF8FF
:100C600005209DF807000146009105285ED80099EF
:100C7000DFE801F00311202F3E4D9DF805009DF89F
:100C80000610490000FA01F20C21C4F202010868C2
:100C9000104308604BE09DF805009DF806104900E0
:100CA00000FA01F240F20C41C4F20201086810435C
:100CB00008603CE09DF805009DF80610490000FA28
:100CC00001F240F60C01C4F202010868104308600A
:100CD0002DE09DF805009DF80610490000FA01F28C
:100CE00040F60C41C4F202010868104308601EE09F
:100CF0009DF805009DF80610490000FA01F241F246
:100D00000C01C4F202010868104308600FE09DF86E
:100D100005009DF80610490000FA01F241F60C4169
:100D2000C4F2020108681043086000E0FFE702B067
:100D30007047000082B08DF807008DF806108DF81E
:100D400005209DF807000146009105285ED800990E
:100D5000DFE801F00311202F3E4D9DF805009DF8BE
:100D60000610490000FA01F20021C4F202010868ED
:100D7000104308604BE09DF805009DF806104900FF
:100D800000FA01F240F20041C4F202010868104387
:100D900008603CE09DF805009DF80610490000FA47
:100DA00001F240F60001C4F2020108681043086035
:100DB0002DE09DF805009DF80610490000FA01F2AB
:100DC00040F60041C4F202010868104308601EE0CA
:100DD0009DF805009DF80610490000FA01F241F265
:100DE0000001C4F202010868104308600FE09DF89A
:100DF00005009DF80610490000FA01F241F6004195
:100E0000C4F2020108681043086000E0FFE702B086
:100E10007047000082B08DF807008DF806108DF83D
:100E200005209DF807000146009105285ED800992D
:100E3000DFE801F00311202F3E4D9DF805009DF8DD
:100E40000610490000FA01F20821C4F20201086804
:100E5000104308604BE09DF805009DF8061049001E
:100E600000FA01F240F20841C4F20201086810439E
:100E700008603CE09DF805009DF80610490000FA66
:100E800001F240F60801C4F202010868104308604C
:100E90002DE09DF805009DF80610490000FA01F2CA
:100EA00040F60841C4F202010868104308601EE0E1
:100EB0009DF805009DF80610490000FA01F241F284
:100EC0000801C4F202010868104308600FE09DF8B1
:100ED00005009DF80610490000FA01F241F60841AC
:100EE000C4F2020108681043086000E0FFE702B0A6
:100EF0007047000082B08DF807008DF806108DF85D
:100F000005209DF8070001460091052858D8009952
:100F1000DFE801F003101E2C3A489DF805009DF80B
:100F2000061000FA01F20421C4F20201086810431D
:100F3000086046E09DF805009DF8061000FA01F2F1
:100F400040F20441C4F2020108681043086038E02E
:100F50009DF805009DF8061000FA01F240F6040124
:100F6000C4F202010868104308602AE09DF80500F9
:100F70009DF8061000FA01F240F60441C4F20201A5
:100F80000868104308601CE09DF805009DF80610F5
:100F900000FA01F241F20401C4F2020108681043B0
:100FA00008600EE09DF805009DF8061000FA01F2B9
:100FB00041F60441C4F2020108681043086000E0F1
:100FC000FFE702B07047000083B08DF80B008DF88A
:100FD0000A108DF809209DF8090001285BD1FFE770
:100FE0009DF80B0001460191052852D80199DFE8D0
:100FF00001F0030F1C2936439DF80A10012000FA66
:1010000001F21421C4F2020108681043086041E0B3
:101010009DF80A10012000FA01F240F21441C4F2D6
:10102000020108681043086034E09DF80A100120AE
:1010300000FA01F240F61401C4F2020108681043FC
:10104000086027E09DF80A10012000FA01F240F63E
:101050001441C4F202010868104308601AE09DF8C8
:101060000A10012000FA01F241F21401C4F2020157
:101070000868104308600DE09DF80A10012000FA8E
:1010800001F241F61441C4F20201086810430860FD
:1010900000E0FFE7FFE79DF8090000285BD1FFE7CC
:1010A0009DF80B0001460091052852D80099DFE811
:1010B00001F0030F1C2936439DF80A10012000FAA5
:1010C00001F21421C4F2020108689043086041E073
:1010D0009DF80A10012000FA01F240F21441C4F216
:1010E000020108689043086034E09DF80A1001206E
:1010F00000FA01F240F61401C4F2020108689043BC
:10110000086027E09DF80A10012000FA01F240F67D
:101110001441C4F202010868904308601AE09DF887
:101120000A10012000FA01F241F21401C4F2020196
:101130000868904308600DE09DF80A10012000FA4D
:1011400001F241F61441C4F20201086890430860BC
:1011500000E0FFE7FFE703B07047F1EE100A4FF63B
:10116000FF71C0F2C03120EA010040F04070E1EEB2
:10117000100A704784110008000000206806000073
:04118000FC01000866
:0400000508000245A8
:00000001FF
