:020000040800F2
:1000000060060020450200084D0200084F0200086B
:1000100051020008530200085502000800000000C9
:10002000000000000000000000000000570200086F
:1000300059020008000000005B0200085D02000891
:100040005F0200085F0200085F0200085F0200080C
:100050005F0200085F0200085F0200085F020008FC
:100060005F0200085F0200085F0200085F020008EC
:100070005F0200085F0200085F0200085F020008DC
:100080005F0200085F0200085F0200080000000035
:100090000000000000000000000000005F020008F7
:1000A0005F0200085F0200085F0200085F020008AC
:1000B0005F0200085F0200085F0200085F0200089C
:1000C0005F0200085F0200085F0200085F0200088C
:1000D0005F0200085F0200085F02000800000000E5
:1000E0005F0200085F0200085F02000800000000D5
:1000F0000000000000000000000000005F02000897
:10010000000000005F0200085F0200085F020008B4
:1001100000000000000000000000000000000000DF
:100120005F0200085F0200085F0200085F0200082B
:100130005F02000800000000000000000000000056
:100140000000000000000000000000005F02000846
:100150005F0200085F0200085F0200085F020008FB
:100160005F0200085F0200080000000000000000BD
:10017000000000000000000000000000000000007F
:10018000000000005F020008000000000000000006
:100190005F02000800F002F800F044F814A696E8A8
:1001A000000CB244B344DA4501D100F03BF8BAE8A0
:1001B0000F000FA696E83000A5EB040504EB060738
:1001C000AAEB0704A7F101074FEA15154FEA34140B
:1001D000A4F10104AC4201D300F024F813F0010FA4
:1001E00018BFFB1A43F0010300F001F8DBE71847E2
:1001F0007C0600008C0600007047000000230024ED
:1002000000250026103A28BF78C1FBD8520728BF26
:1002100030C148BF0B6070471FB500F01AFB1FBD0F
:1002200010B510BD00F032F81146FFF7F5FF00F0F1
:100230006FF800F050F803B4FFF7F2FF03BC00F0D2
:1002400057F800000948804709480047FEE7FEE7E5
:10025000FEE7FEE7FEE7FEE7FEE7FEE7FEE7FEE776
:1002600004480549054A064B70470000FD02000896
:100270009501000860000020600600206002002058
:10028000600200207047704770477047754600F065
:100290002BF8AE4605006946534620F00700854618
:1002A00018B020B5FFF7DCFFBDE820404FF0000696
:1002B0004FF000074FF000084FF0000BAC46ACE8E1
:1002C000C009ACE8C009ACE8C009ACE8C00921F03D
:1002D00007018D46704710B50446AFF300802046F5
:1002E000BDE81040FFF7A7BF00487047000000209E
:1002F00001491820ABBEFEE7260002004EF68851E9
:10030000CEF20001086840F47000086070470000F9
:1003100080B588B0002104910791084600F03EF8AE
:10032000049801220392114600F080F80399049A80
:10033000104600F05BF90399049A104600F0E6F8C5
:10034000FFE7002002900122114600F0B9F902985F
:100350000690FFE706984AF21F11C0F20701884293
:1003600005DCFFE7FFE7069801300690F2E7012180
:1003700000220192104600F0A3F901980590FFE7D2
:1003800005984AF21F11C0F20701884205DCFFE719
:10039000FFE7059801300590F2E7D2E782B08DF8CB
:1003A0000700ADF804109DF80700014600910328EE
:1003B00038D80099DFE801F0020F1C29BDF80410BD
:1003C000012000FA01F243F63001C4F2020108688C
:1003D0001043086027E0BDF80410012000FA01F284
:1003E00043F63401C4F202010868104308601AE0C1
:1003F000BDF80410012000FA01F243F64001C4F2F6
:1004000002010868104308600DE0BDF804100120E7
:1004100000FA01F243F64401C4F2020108681043F5
:10042000086000E0FFE702B07047000082B08DF87E
:1004300007008DF806108DF805209DF8070001468D
:10044000009105285ED80099DFE801F00311202F04
:100450003E4D9DF805009DF80610490000FA01F296
:100460000021C4F202010868104308604BE09DF8C7
:1004700005009DF80610490000FA01F240F2004123
:10048000C4F202010868104308603CE09DF80500D2
:100490009DF80610490000FA01F240F60001C4F28E
:1004A00002010868104308602DE09DF805009DF8E2
:1004B0000610490000FA01F240F60041C4F20201C0
:1004C0000868104308601EE09DF805009DF80610BE
:1004D000490000FA01F241F20001C4F20201086889
:1004E000104308600FE09DF805009DF806104900D4
:1004F00000FA01F241F60041C4F20201086810431B
:10050000086000E0FFE702B07047000082B08DF89D
:1005100007008DF806108DF805209DF807000146AC
:10052000009105285ED80099DFE801F00311202F23
:100530003E4D9DF805009DF80610490000FA01F2B5
:100540000821C4F202010868104308604BE09DF8DE
:1005500005009DF80610490000FA01F240F208413A
:10056000C4F202010868104308603CE09DF80500F1
:100570009DF80610490000FA01F240F60801C4F2A5
:1005800002010868104308602DE09DF805009DF801
:100590000610490000FA01F240F60841C4F20201D7
:1005A0000868104308601EE09DF805009DF80610DD
:1005B000490000FA01F241F20801C4F202010868A0
:1005C000104308600FE09DF805009DF806104900F3
:1005D00000FA01F241F60841C4F202010868104332
:1005E000086000E0FFE702B07047000082B08DF8BD
:1005F00007008DF806108DF805209DF807000146CC
:100600000091052858D80099DFE801F003101E2C4E
:100610003A489DF805009DF8061000FA01F2042101
:10062000C4F2020108681043086046E09DF8050026
:100630009DF8061000FA01F240F20441C4F20201F2
:1006400008681043086038E09DF805009DF8061022
:1006500000FA01F240F60401C4F2020108681043F6
:1006600008602AE09DF805009DF8061000FA01F2E6
:1006700040F60441C4F202010868104308601CE01F
:100680009DF805009DF8061000FA01F241F2040100
:10069000C4F202010868104308600EE09DF80500EE
:1006A0009DF8061000FA01F241F60441C4F202017D
:1006B00008681043086000E0FFE702B070470000E0
:1006C00083B08DF80B008DF80A108DF809209DF885
:1006D000090001285BD1FFE79DF80B00014601915D
:1006E000052852D80199DFE801F0030F1C29364391
:1006F0009DF80A10012000FA01F21421C4F202014F
:1007000008681043086041E09DF80A10012000FAD3
:1007100001F240F21441C4F202010868104308607B
:1007200034E09DF80A10012000FA01F240F61401AD
:10073000C4F2020108681043086027E09DF80A101F
:10074000012000FA01F240F61441C4F202010868E7
:10075000104308601AE09DF80A10012000FA01F227
:1007600041F21401C4F202010868104308600DE070
:100770009DF80A10012000FA01F241F61441C4F27A
:10078000020108681043086000E0FFE7FFE79DF8FA
:10079000090000285BD1FFE79DF80B00014600919E
:1007A000052852D80099DFE801F0030F1C293643D1
:1007B0009DF80A10012000FA01F21421C4F202018E
:1007C00008689043086041E09DF80A10012000FA93
:1007D00001F240F21441C4F202010868904308603B
:1007E00034E09DF80A10012000FA01F240F61401ED
:1007F000C4F2020108689043086027E09DF80A10DF
:10080000012000FA01F240F61441C4F20201086826
:10081000904308601AE09DF80A10012000FA01F2E6
:1008200041F21401C4F202010868904308600DE02F
:100830009DF80A10012000FA01F241F61441C4F2B9
:10084000020108689043086000E0FFE7FFE703B09B
:100850007047F1EE100A4FF6FF71C0F2C03120EA86
:10086000010040F04070E1EE100A70477C0800087B
:0C0870000000002060060000FC010008F1
:0400000508000245A8
:00000001FF
