:020000040800F2
:1000000060060020450200084D0200084F0200086B
:1000100051020008530200085502000800000000C9
:10002000000000000000000000000000570200086F
:1000300059020008000000005B0200085D02000891
:100040005F0200085F0200085F0200085F0200080C
:100050005F0200085F0200085F0200085F020008FC
:100060005F0200085F0200085F0200085F020008EC
:100070005F0200085F0200085F0200085F020008DC
:100080005F0200085F0200085F0200080000000035
:100090000000000000000000000000005F020008F7
:1000A0005F0200085F0200085F0200085F020008AC
:1000B0005F0200085F0200085F0200085F0200089C
:1000C0005F0200085F0200085F0200085F0200088C
:1000D0005F0200085F0200085F02000800000000E5
:1000E0005F0200085F0200085F02000800000000D5
:1000F0000000000000000000000000005F02000897
:10010000000000005F0200085F0200085F020008B4
:1001100000000000000000000000000000000000DF
:100120005F0200085F0200085F0200085F0200082B
:100130005F02000800000000000000000000000056
:100140000000000000000000000000005F02000846
:100150005F0200085F0200085F0200085F020008FB
:100160005F0200085F0200080000000000000000BD
:10017000000000000000000000000000000000007F
:10018000000000005F020008000000000000000006
:100190005F02000800F002F800F044F814A696E8A8
:1001A000000CB244B344DA4501D100F03BF8BAE8A0
:1001B0000F000FA696E83000A5EB040504EB060738
:1001C000AAEB0704A7F101074FEA15154FEA34140B
:1001D000A4F10104AC4201D300F024F813F0010FA4
:1001E00018BFFB1A43F0010300F001F8DBE71847E2
:1001F000B80B0000C80B000070470000002300246B
:1002000000250026103A28BF78C1FBD8520728BF26
:1002100030C148BF0B6070471FB500F0B8FD1FBD6F
:1002200010B510BD00F031F81146FFF7F5FF00F0F2
:1002300071F800F04FF803B4FFF7F2FF03BC00F0D1
:1002400057F800000948804709480047FEE7FEE7E5
:10025000FEE7FEE7FEE7FEE7FEE7FEE7FEE7FEE776
:1002600004480549054A064B704700000103000891
:100270009501000860000020600600206002002058
:1002800060020020704770477047754600F02CF8F8
:10029000AE4605006946534620F00700854618B073
:1002A00020B5FFF7DDFFBDE820404FF000064FF01E
:1002B00000074FF000084FF0000BAC46ACE8C00957
:1002C000ACE8C009ACE8C009ACE8C00921F00701FE
:1002D0008D46704710B50446AFF300802046BDE858
:1002E0001040FFF7A8BF0000004870470000002042
:1002F00001491820ABBEFEE726000200704700004F
:100300004EF68851CEF20001086840F47000086093
:100310007047000080B598B00021079117910846FA
:1003200000F0DAFA079801220692114600F01CFB51
:10033000079A1046114600F0F7FB069A07990846FF
:1003400000F082FB07980C900B90FFE70B980428B5
:1003500009DCFFE70B9812A941F82000FFE70B9892
:1003600001300B90F2E70021059101220223049352
:10037000184600F08DF8049805996B4605221A601E
:1003800012AA0DAB00F030FA0498059900F04EF86F
:10039000FFE700200A90FFE70A98042813DCFFE734
:1003A0000A9A12A850F822000DA951F8221088428A
:1003B00004D1FFE70C9801300C90FFE7FFE70A98A3
:1003C00001300A90E8E70C9805282DD1FFE70021BD
:1003D00003910122084600F011FC03980990FFE701
:1003E00009984AF21F11C0F20701884205DCFFE7B5
:1003F000FFE7099801300990F2E7002202921046C7
:10040000114600F0FBFB02980890FFE708984AF2BB
:100410001F11C0F20701884205DCFFE7FFE70898DB
:1004200001300890F2E7FFE7B3E7000082B08DF8F3
:1004300007008DF806109DF807000146009101287D
:1004400004D0FFE7009802280FD01DE09DF80600B9
:1004500000EB400246F21001C4F2020151F83200F2
:1004600040F0010041F832000FE09DF8060000EB7B
:10047000400246F21041C4F2020151F8320040F04D
:10048000010041F83200FFE7FFE702B070470000CB
:1004900080B584B08DF80F008DF80E108DF80D200A
:1004A0008DF80C309DF80F0001460291012805D00F
:1004B000FFE70298022800F0CA8091E19DF80E0043
:1004C00000EB400246F21001C4F2020151F8320082
:1004D00020F0010041F83200FFE79DF80E0000EB2C
:1004E000400146F21000C4F2020050F83100C0078B
:1004F00008B1FFE7F1E70020152100F0EDF946F221
:100500000801C4F2020108684FF0FF30086046F2AB
:100510000C01C4F202010A6808609DF80D309DF8D4
:100520000E0000EB400246F21001C4F202010191FC
:1005300051F8320040EA436041F832009DF80E0065
:1005400000EB400251F8320020F0200041F8320068
:100550009DF80E0000EB400251F8320040F44030AC
:1005600041F832009DF80E0000EB400346F22402F1
:10057000C4F2020252F8330020F0040042F83300C3
:100580009DF80E0000EB400352F8330040F00200EB
:1005900042F833009DF80E0000EB400352F83300A0
:1005A00020F0010042F833009DF80C309DF80E0059
:1005B00000EB400251F8320040EA831041F832006B
:1005C0009DF80E0000EB400251F8320040F400703C
:1005D00041F832009DF80E0000EB400251F8320065
:1005E00040F4806041F832009DF80E0000EB4002BC
:1005F00051F8320040F4805041F832009DF80E006E
:1006000000EB400251F8320020F4006041F8320063
:100610009DF80E0000EB400251F8320040F480409B
:1006200041F832009DF80E0000EB400251F8320014
:1006300020F4005041F832009DF80E0000EB40021B
:1006400051F8320040F0100041F83200C9E09DF846
:100650000E0000EB400246F21041C4F2020151F8D4
:10066000320020F0010041F83200FFE79DF80E0053
:1006700000EB400146F21040C4F2020050F8310095
:10068000C00708B1FFE7F1E70020162100F024F9C8
:1006900046F20841C4F2020108684FF0FF300860DA
:1006A00046F20C41C4F202010A6808609DF80D3060
:1006B0009DF80E0000EB400246F21041C4F2020128
:1006C000009151F8320040EA436041F832009DF851
:1006D0000E0000EB400251F8320020F0200041F8FB
:1006E00032009DF80E0000EB400251F8320040F459
:1006F000403041F832009DF80E0000EB400346F216
:100700002442C4F2020252F8330020F0040042F8FE
:1007100033009DF80E0000EB400352F8330040F028
:10072000020042F833009DF80E0000EB400352F83F
:10073000330020F0010042F833009DF80C309DF8A2
:100740000E0000EB400251F8320040EA831041F8FD
:1007500032009DF80E0000EB400251F8320040F4E8
:10076000007041F832009DF80E0000EB400251F895
:10077000320040F4806041F832009DF80E0000EB3A
:10078000400251F8320040F4805041F832009DF8A8
:100790000E0000EB400251F8320020F4006041F8F6
:1007A00032009DF80E0000EB400251F8320040F498
:1007B000804041F832009DF80E0000EB400251F8F5
:1007C000320020F4005041F832009DF80E0000EB9A
:1007D000400251F8320040F0100041F8320000E0D1
:1007E000FFE704B080BD000084B0DDF810C08DF8D4
:1007F0000F008DF80E10029201939DF80F00014634
:100800000091012804D0FFE70098022830D05FE073
:100810009DF80E0000EB400246F21001C4F2020106
:1008200051F8320020F0010041F8320002989DF8A2
:100830000E1001EB410246F21801C4F2020141F828
:10084000320001989DF80E1001EB410246F21C01A6
:10085000C4F2020141F8320004989DF80E1001EB39
:10086000410246F21401C4F2020141F8320030E0C4
:100870009DF80E0000EB400246F21041C4F2020166
:1008800051F8320020F0010041F8320002989DF842
:100890000E1001EB410246F21841C4F2020141F888
:1008A000320001989DF80E1001EB410246F21C4106
:1008B000C4F2020141F8320004989DF80E1001EBD9
:1008C000410246F21441C4F2020141F8320000E054
:1008D000FFE704B07047000082B08DF80700ADF864
:1008E00004109DF8070001460091032838D80099AC
:1008F000DFE801F0020F1C29BDF80410012000FA06
:1009000001F243F63001C4F20201086810430860A6
:1009100027E0BDF80410012000FA01F243F634018B
:10092000C4F202010868104308601AE0BDF8041020
:10093000012000FA01F243F64001C4F20201086806
:10094000104308600DE0BDF80410012000FA01F228
:1009500043F64401C4F2020108681043086000E055
:10096000FFE702B07047000082B08DF807008DF8F5
:1009700006108DF805209DF8070001460091052816
:100980005ED80099DFE801F00311202F3E4D9DF85D
:1009900005009DF80610490000FA01F20021C4F29A
:1009A00002010868104308604BE09DF805009DF8BF
:1009B0000610490000FA01F240F20041C4F20201BF
:1009C0000868104308603CE09DF805009DF806109B
:1009D000490000FA01F240F60001C4F20201086881
:1009E000104308602DE09DF805009DF806104900B1
:1009F00000FA01F240F60041C4F202010868104317
:100A000008601EE09DF805009DF80610490000FAF8
:100A100001F241F20001C4F20201086810430860CB
:100A20000FE09DF805009DF80610490000FA01F25C
:100A300041F60041C4F2020108681043086000E07A
:100A4000FFE702B07047000082B08DF807008DF814
:100A500006108DF805209DF8070001460091052835
:100A60005ED80099DFE801F00311202F3E4D9DF87C
:100A700005009DF80610490000FA01F20821C4F2B1
:100A800002010868104308604BE09DF805009DF8DE
:100A90000610490000FA01F240F20841C4F20201D6
:100AA0000868104308603CE09DF805009DF80610BA
:100AB000490000FA01F240F60801C4F20201086898
:100AC000104308602DE09DF805009DF806104900D0
:100AD00000FA01F240F60841C4F20201086810432E
:100AE00008601EE09DF805009DF80610490000FA18
:100AF00001F241F20801C4F20201086810430860E3
:100B00000FE09DF805009DF80610490000FA01F27B
:100B100041F60841C4F2020108681043086000E091
:100B2000FFE702B07047000082B08DF807008DF833
:100B300006108DF805209DF8070001460091052854
:100B400058D80099DFE801F003101E2C3A489DF8B0
:100B500005009DF8061000FA01F20421C4F202011A
:100B600008681043086046E09DF805009DF80610EF
:100B700000FA01F240F20441C4F202010868104395
:100B8000086038E09DF805009DF8061000FA01F2B3
:100B900040F60401C4F202010868104308602AE02C
:100BA0009DF805009DF8061000FA01F240F6044198
:100BB000C4F202010868104308601CE09DF80500BB
:100BC0009DF8061000FA01F241F20401C4F202019C
:100BD0000868104308600EE09DF805009DF80610B7
:100BE00000FA01F241F60441C4F202010868104320
:100BF000086000E0FFE702B07047000083B08DF8A6
:100C00000B008DF80A108DF809209DF809000128C5
:100C10005BD1FFE79DF80B0001460191052852D8F2
:100C20000199DFE801F0030F1C2936439DF80A10F3
:100C3000012000FA01F21421C4F2020108681043F5
:100C4000086041E09DF80A10012000FA01F240F22C
:100C50001441C4F2020108681043086034E09DF8B2
:100C60000A10012000FA01F240F61401C4F2020158
:100C700008681043086027E09DF80A10012000FA78
:100C800001F240F61441C4F2020108681043086002
:100C90001AE09DF80A10012000FA01F241F2140155
:100CA000C4F202010868104308600DE09DF80A10C4
:100CB000012000FA01F241F61441C4F20201086871
:100CC0001043086000E0FFE7FFE79DF809000028F7
:100CD0005BD1FFE79DF80B0001460091052852D833
:100CE0000099DFE801F0030F1C2936439DF80A1034
:100CF000012000FA01F21421C4F2020108689043B5
:100D0000086041E09DF80A10012000FA01F240F26B
:100D10001441C4F2020108689043086034E09DF871
:100D20000A10012000FA01F240F61401C4F2020197
:100D300008689043086027E09DF80A10012000FA37
:100D400001F240F61441C4F20201086890430860C1
:100D50001AE09DF80A10012000FA01F241F2140194
:100D6000C4F202010868904308600DE09DF80A1083
:100D7000012000FA01F241F61441C4F202010868B0
:100D80009043086000E0FFE7FFE703B07047F1EE33
:100D9000100A4FF6FF71C0F2C03120EA010040F0A6
:100DA0004070E1EE100A7047B80D00080000002006
:080DB00060060000FC010008D0
:0400000508000245A8
:00000001FF
